{
  "contractName": "Diplomas",
  "abi": [
    {
      "inputs": [],
      "stateMutability": "nonpayable",
      "type": "constructor"
    },
    {
      "anonymous": false,
      "inputs": [
        {
          "indexed": false,
          "internalType": "string",
          "name": "_certId",
          "type": "string"
        },
        {
          "indexed": false,
          "internalType": "address",
          "name": "_certAuth",
          "type": "address"
        }
      ],
      "name": "certCreated",
      "type": "event"
    },
    {
      "anonymous": false,
      "inputs": [
        {
          "indexed": false,
          "internalType": "string",
          "name": "_certId",
          "type": "string"
        },
        {
          "indexed": false,
          "internalType": "address",
          "name": "_certAuth",
          "type": "address"
        }
      ],
      "name": "certVoided",
      "type": "event"
    },
    {
      "inputs": [
        {
          "internalType": "string",
          "name": "_certId",
          "type": "string"
        }
      ],
      "name": "voidCert",
      "outputs": [],
      "stateMutability": "nonpayable",
      "type": "function"
    },
    {
      "inputs": [
        {
          "internalType": "string",
          "name": "_certId",
          "type": "string"
        },
        {
          "internalType": "uint32",
          "name": "_expiresOn",
          "type": "uint32"
        },
        {
          "internalType": "string",
          "name": "_title",
          "type": "string"
        },
        {
          "internalType": "string",
          "name": "_institution",
          "type": "string"
        },
        {
          "internalType": "string",
          "name": "_beneficiary",
          "type": "string"
        },
        {
          "internalType": "string",
          "name": "_details",
          "type": "string"
        },
        {
          "internalType": "string",
          "name": "_pofHash",
          "type": "string"
        }
      ],
      "name": "createCert",
      "outputs": [
        {
          "internalType": "bool",
          "name": "created",
          "type": "bool"
        }
      ],
      "stateMutability": "nonpayable",
      "type": "function"
    },
    {
      "inputs": [
        {
          "internalType": "string",
          "name": "_certId",
          "type": "string"
        },
        {
          "internalType": "address",
          "name": "_certAuth",
          "type": "address"
        }
      ],
      "name": "getCert",
      "outputs": [
        {
          "internalType": "uint256",
          "name": "createdOn",
          "type": "uint256"
        },
        {
          "internalType": "uint256",
          "name": "voidedOn",
          "type": "uint256"
        },
        {
          "internalType": "uint256",
          "name": "expiresOn",
          "type": "uint256"
        },
        {
          "internalType": "string",
          "name": "title",
          "type": "string"
        },
        {
          "internalType": "string",
          "name": "institution",
          "type": "string"
        },
        {
          "internalType": "string",
          "name": "beneficiary",
          "type": "string"
        },
        {
          "internalType": "string",
          "name": "details",
          "type": "string"
        },
        {
          "internalType": "string",
          "name": "PoEhash",
          "type": "string"
        }
      ],
      "stateMutability": "view",
      "type": "function",
      "constant": true
    },
    {
      "inputs": [
        {
          "internalType": "string",
          "name": "_certId",
          "type": "string"
        },
        {
          "internalType": "address",
          "name": "_certAuth",
          "type": "address"
        }
      ],
      "name": "certValid",
      "outputs": [
        {
          "internalType": "bool",
          "name": "isValid",
          "type": "bool"
        }
      ],
      "stateMutability": "view",
      "type": "function",
      "constant": true
    },
    {
      "inputs": [
        {
          "internalType": "string",
          "name": "_certId",
          "type": "string"
        },
        {
          "internalType": "address",
          "name": "_certAuth",
          "type": "address"
        },
        {
          "internalType": "string",
          "name": "_pofHash",
          "type": "string"
        }
      ],
      "name": "proofOfExistence",
      "outputs": [
        {
          "internalType": "bool",
          "name": "isValid",
          "type": "bool"
        }
      ],
      "stateMutability": "view",
      "type": "function",
      "constant": true
    },
    {
      "inputs": [],
      "name": "destroyContract",
      "outputs": [],
      "stateMutability": "nonpayable",
      "type": "function"
    }
  ],
  "bytecode": "0x608060405234801561001057600080fd5b5033600160006101000a81548173ffffffffffffffffffffffffffffffffffffffff021916908373ffffffffffffffffffffffffffffffffffffffff160217905550611e3b806100616000396000f3fe608060405234801561001057600080fd5b50600436106100625760003560e01c8063092a5cce146100675780639194e78114610071578063c98a8cb914610348578063ddc271f114610403578063e7036d63146104f4578063f91c9e491461073c575b600080fd5b61006f610840565b005b6101086004803603604081101561008757600080fd5b81019080803590602001906401000000008111156100a457600080fd5b8201836020820111156100b657600080fd5b803590602001918460018302840111640100000000831117156100d857600080fd5b9091929391929390803573ffffffffffffffffffffffffffffffffffffffff16906020019092919050505061091c565b60405180898152602001888152602001878152602001806020018060200180602001806020018060200186810386528b818151815260200191508051906020019080838360005b8381101561016a57808201518184015260208101905061014f565b50505050905090810190601f1680156101975780820380516001836020036101000a031916815260200191505b5086810385528a818151815260200191508051906020019080838360005b838110156101d05780820151818401526020810190506101b5565b50505050905090810190601f1680156101fd5780820380516001836020036101000a031916815260200191505b50868103845289818151815260200191508051906020019080838360005b8381101561023657808201518184015260208101905061021b565b50505050905090810190601f1680156102635780820380516001836020036101000a031916815260200191505b50868103835288818151815260200191508051906020019080838360005b8381101561029c578082015181840152602081019050610281565b50505050905090810190601f1680156102c95780820380516001836020036101000a031916815260200191505b50868103825287818151815260200191508051906020019080838360005b838110156103025780820151818401526020810190506102e7565b50505050905090810190601f16801561032f5780820380516001836020036101000a031916815260200191505b509d505050505050505050505050505060405180910390f35b6104016004803603602081101561035e57600080fd5b810190808035906020019064010000000081111561037b57600080fd5b82018360208201111561038d57600080fd5b803590602001918460018302840111640100000000831117156103af57600080fd5b91908080601f016020809104026020016040519081016040528093929190818152602001838380828437600081840152601f19601f820116905080830192505050505050509192919290505050610fa3565b005b6104dc6004803603604081101561041957600080fd5b810190808035906020019064010000000081111561043657600080fd5b82018360208201111561044857600080fd5b8035906020019184600183028401116401000000008311171561046a57600080fd5b91908080601f016020809104026020016040519081016040528093929190818152602001838380828437600081840152601f19601f820116905080830192505050505050509192919290803573ffffffffffffffffffffffffffffffffffffffff169060200190929190505050611202565b60405180821515815260200191505060405180910390f35b610724600480360360e081101561050a57600080fd5b810190808035906020019064010000000081111561052757600080fd5b82018360208201111561053957600080fd5b8035906020019184600183028401116401000000008311171561055b57600080fd5b9091929391929390803563ffffffff1690602001909291908035906020019064010000000081111561058c57600080fd5b82018360208201111561059e57600080fd5b803590602001918460018302840111640100000000831117156105c057600080fd5b9091929391929390803590602001906401000000008111156105e157600080fd5b8201836020820111156105f357600080fd5b8035906020019184600183028401116401000000008311171561061557600080fd5b90919293919293908035906020019064010000000081111561063657600080fd5b82018360208201111561064857600080fd5b8035906020019184600183028401116401000000008311171561066a57600080fd5b90919293919293908035906020019064010000000081111561068b57600080fd5b82018360208201111561069d57600080fd5b803590602001918460018302840111640100000000831117156106bf57600080fd5b9091929391929390803590602001906401000000008111156106e057600080fd5b8201836020820111156106f257600080fd5b8035906020019184600183028401116401000000008311171561071457600080fd5b909192939192939050505061168c565b60405180821515815260200191505060405180910390f35b6108286004803603606081101561075257600080fd5b810190808035906020019064010000000081111561076f57600080fd5b82018360208201111561078157600080fd5b803590602001918460018302840111640100000000831117156107a357600080fd5b9091929391929390803573ffffffffffffffffffffffffffffffffffffffff169060200190929190803590602001906401000000008111156107e457600080fd5b8201836020820111156107f657600080fd5b8035906020019184600183028401116401000000008311171561081857600080fd5b9091929391929390505050611b20565b60405180821515815260200191505060405180910390f35b3373ffffffffffffffffffffffffffffffffffffffff16600160009054906101000a900473ffffffffffffffffffffffffffffffffffffffff1673ffffffffffffffffffffffffffffffffffffffff1614610903576040517f08c379a00000000000000000000000000000000000000000000000000000000081526004018080602001828103825260128152602001807f596f75277265206e6f74206d792064616421000000000000000000000000000081525060200191505060405180910390fd5b3373ffffffffffffffffffffffffffffffffffffffff16ff5b600080600060608060608060606000600281111561093657fe5b6000808b73ffffffffffffffffffffffffffffffffffffffff1673ffffffffffffffffffffffffffffffffffffffff1681526020019081526020016000208c8c604051808383808284378083019250505092505050908152602001604051809103902060000160009054906101000a900460ff1660028111156109b557fe5b1415610a29576040517f08c379a00000000000000000000000000000000000000000000000000000000081526004018080602001828103825260178152602001807f4469706c6f6d6120646f6573206e6f742065786973747300000000000000000081525060200191505060405180910390fd5b60008060008b73ffffffffffffffffffffffffffffffffffffffff1673ffffffffffffffffffffffffffffffffffffffff1681526020019081526020016000208c8c6040518083838082843780830192505050925050509081526020016040518091039020600301541115610b7457426000808b73ffffffffffffffffffffffffffffffffffffffff1673ffffffffffffffffffffffffffffffffffffffff1681526020019081526020016000208c8c60405180838380828437808301925050509250505090815260200160405180910390206003015411610b73576040517f08c379a00000000000000000000000000000000000000000000000000000000081526004018080602001828103825260138152602001807f4469706c6f6d612068617320657870697265640000000000000000000000000081525060200191505060405180910390fd5b5b60008060008b73ffffffffffffffffffffffffffffffffffffffff1673ffffffffffffffffffffffffffffffffffffffff1681526020019081526020016000208c8c6040518083838082843780830192505050925050509081526020016040518091039020604051806101200160405290816000820160009054906101000a900460ff166002811115610c0357fe5b6002811115610c0e57fe5b8152602001600182015481526020016002820154815260200160038201548152602001600482018054600181600116156101000203166002900480601f016020809104026020016040519081016040528092919081815260200182805460018160011615610100020316600290048015610cc95780601f10610c9e57610100808354040283529160200191610cc9565b820191906000526020600020905b815481529060010190602001808311610cac57829003601f168201915b50505050508152602001600582018054600181600116156101000203166002900480601f016020809104026020016040519081016040528092919081815260200182805460018160011615610100020316600290048015610d6b5780601f10610d4057610100808354040283529160200191610d6b565b820191906000526020600020905b815481529060010190602001808311610d4e57829003601f168201915b50505050508152602001600682018054600181600116156101000203166002900480601f016020809104026020016040519081016040528092919081815260200182805460018160011615610100020316600290048015610e0d5780601f10610de257610100808354040283529160200191610e0d565b820191906000526020600020905b815481529060010190602001808311610df057829003601f168201915b50505050508152602001600782018054600181600116156101000203166002900480601f016020809104026020016040519081016040528092919081815260200182805460018160011615610100020316600290048015610eaf5780601f10610e8457610100808354040283529160200191610eaf565b820191906000526020600020905b815481529060010190602001808311610e9257829003601f168201915b50505050508152602001600882018054600181600116156101000203166002900480601f016020809104026020016040519081016040528092919081815260200182805460018160011615610100020316600290048015610f515780601f10610f2657610100808354040283529160200191610f51565b820191906000526020600020905b815481529060010190602001808311610f3457829003601f168201915b505050505081525050905080602001518160400151826060015183608001518460a001518560c001518660e0015187610100015198509850985098509850985098509850509397509397509397509397565b60016002811115610fb057fe5b6000803373ffffffffffffffffffffffffffffffffffffffff1673ffffffffffffffffffffffffffffffffffffffff168152602001908152602001600020826040518082805190602001908083835b602083106110225780518252602082019150602081019050602083039250610fff565b6001836020036101000a038019825116818451168082178552505050505050905001915050908152602001604051809103902060000160009054906101000a900460ff16600281111561107157fe5b1461107b57600080fd5b60026000803373ffffffffffffffffffffffffffffffffffffffff1673ffffffffffffffffffffffffffffffffffffffff168152602001908152602001600020826040518082805190602001908083835b602083106110ef57805182526020820191506020810190506020830392506110cc565b6001836020036101000a038019825116818451168082178552505050505050905001915050908152602001604051809103902060000160006101000a81548160ff0219169083600281111561114057fe5b02179055507f6351a9ce057c67c43708bf35670c1ae7a84e549c3566af082ba5397cbb2c7f92813360405180806020018373ffffffffffffffffffffffffffffffffffffffff168152602001828103825284818151815260200191508051906020019080838360005b838110156111c45780820151818401526020810190506111a9565b50505050905090810190601f1680156111f15780820380516001836020036101000a031916815260200191505b50935050505060405180910390a150565b6000806000808473ffffffffffffffffffffffffffffffffffffffff1673ffffffffffffffffffffffffffffffffffffffff168152602001908152602001600020846040518082805190602001908083835b602083106112775780518252602082019150602081019050602083039250611254565b6001836020036101000a0380198251168184511680821785525050505050509050019150509081526020016040518091039020604051806101200160405290816000820160009054906101000a900460ff1660028111156112d457fe5b60028111156112df57fe5b8152602001600182015481526020016002820154815260200160038201548152602001600482018054600181600116156101000203166002900480601f01602080910402602001604051908101604052809291908181526020018280546001816001161561010002031660029004801561139a5780601f1061136f5761010080835404028352916020019161139a565b820191906000526020600020905b81548152906001019060200180831161137d57829003601f168201915b50505050508152602001600582018054600181600116156101000203166002900480601f01602080910402602001604051908101604052809291908181526020018280546001816001161561010002031660029004801561143c5780601f106114115761010080835404028352916020019161143c565b820191906000526020600020905b81548152906001019060200180831161141f57829003601f168201915b50505050508152602001600682018054600181600116156101000203166002900480601f0160208091040260200160405190810160405280929190818152602001828054600181600116156101000203166002900480156114de5780601f106114b3576101008083540402835291602001916114de565b820191906000526020600020905b8154815290600101906020018083116114c157829003601f168201915b50505050508152602001600782018054600181600116156101000203166002900480601f0160208091040260200160405190810160405280929190818152602001828054600181600116156101000203166002900480156115805780601f1061155557610100808354040283529160200191611580565b820191906000526020600020905b81548152906001019060200180831161156357829003601f168201915b50505050508152602001600882018054600181600116156101000203166002900480601f0160208091040260200160405190810160405280929190818152602001828054600181600116156101000203166002900480156116225780601f106115f757610100808354040283529160200191611622565b820191906000526020600020905b81548152906001019060200180831161160557829003601f168201915b50505050508152505090506001600281111561163a57fe5b8160000151600281111561164a57fe5b14611659576000915050611686565b60008160600151141580156116715750428160600151105b15611680576000915050611686565b60019150505b92915050565b600080600281111561169a57fe5b6000803373ffffffffffffffffffffffffffffffffffffffff1673ffffffffffffffffffffffffffffffffffffffff1681526020019081526020016000208f8f604051808383808284378083019250505092505050908152602001604051809103902060000160009054906101000a900460ff16600281111561171957fe5b1461178c576040517f08c379a00000000000000000000000000000000000000000000000000000000081526004018080602001828103825260118152602001807f4469706c6f6d6120496420696e2075736500000000000000000000000000000081525060200191505060405180910390fd5b604051806101200160405280600160028111156117a557fe5b81526020014281526020016000815260200160008e63ffffffff16116117cc5760006117d6565b8d63ffffffff1642015b81526020018c8c8080601f016020809104026020016040519081016040528093929190818152602001838380828437600081840152601f19601f8201169050808301925050505050505081526020018a8a8080601f016020809104026020016040519081016040528093929190818152602001838380828437600081840152601f19601f82011690508083019250505050505050815260200188888080601f016020809104026020016040519081016040528093929190818152602001838380828437600081840152601f19601f82011690508083019250505050505050815260200186868080601f016020809104026020016040519081016040528093929190818152602001838380828437600081840152601f19601f82011690508083019250505050505050815260200184848080601f016020809104026020016040519081016040528093929190818152602001838380828437600081840152601f19601f820116905080830192505050505050508152506000803373ffffffffffffffffffffffffffffffffffffffff1673ffffffffffffffffffffffffffffffffffffffff1681526020019081526020016000208f8f604051808383808284378083019250505092505050908152602001604051809103902060008201518160000160006101000a81548160ff021916908360028111156119d257fe5b02179055506020820151816001015560408201518160020155606082015181600301556080820151816004019080519060200190611a11929190611d5a565b5060a0820151816005019080519060200190611a2e929190611d5a565b5060c0820151816006019080519060200190611a4b929190611d5a565b5060e0820151816007019080519060200190611a68929190611d5a565b50610100820151816008019080519060200190611a86929190611d5a565b509050507f6351a9ce057c67c43708bf35670c1ae7a84e549c3566af082ba5397cbb2c7f928e8e3360405180806020018373ffffffffffffffffffffffffffffffffffffffff1681526020018281038252858582818152602001925080828437600081840152601f19601f82011690508083019250505094505050505060405180910390a1600190509d9c50505050505050505050505050565b600060016002811115611b2f57fe5b6000808673ffffffffffffffffffffffffffffffffffffffff1673ffffffffffffffffffffffffffffffffffffffff1681526020019081526020016000208787604051808383808284378083019250505092505050908152602001604051809103902060000160009054906101000a900460ff166002811115611bae57fe5b14611bb857600080fd5b60008060008673ffffffffffffffffffffffffffffffffffffffff1673ffffffffffffffffffffffffffffffffffffffff1681526020019081526020016000208787604051808383808284378083019250505092505050908152602001604051809103902060080180546001816001161561010002031660029004905011611c3f57600080fd5b8282604051602001808383808284378083019250505092505050604051602081830303815290604052805190602001206000808673ffffffffffffffffffffffffffffffffffffffff1673ffffffffffffffffffffffffffffffffffffffff168152602001908152602001600020878760405180838380828437808301925050509250505090815260200160405180910390206008016040516020018082805460018160011615610100020316600290048015611d335780601f10611d11576101008083540402835291820191611d33565b820191906000526020600020905b815481529060010190602001808311611d1f575b50509150506040516020818303038152906040528051906020012014905095945050505050565b828054600181600116156101000203166002900490600052602060002090601f016020900481019282611d905760008555611dd7565b82601f10611da957805160ff1916838001178555611dd7565b82800160010185558215611dd7579182015b82811115611dd6578251825591602001919060010190611dbb565b5b509050611de49190611de8565b5090565b5b80821115611e01576000816000905550600101611de9565b509056fea264697066735822122031432cd71f5367adf612920cb6b7631a776772b38c6663435925a766fb3f96f164736f6c63430007060033",
  "immutableReferences": {},
  "source": "// SPDX-License-Identifier: GPL-3.0\n\npragma solidity ^0.7.0;\n\nimport \"./NTCert.sol\";\n\ncontract Diplomas is NTCert {\n    \n     mapping(address => mapping(string => certificate)) private diplomas;\n     \n     modifier onlyOwner {\n         require(owner == msg.sender, \"You're not my dad!\");\n         _;\n     }\n     \n     address private owner;\n     \n     constructor(){\n         owner = msg.sender;\n     }\n    \n    \n    function voidCert(string memory _certId) override public{\n        require(diplomas[msg.sender][_certId].status == certStatus.ACTIVE);\n        diplomas[msg.sender][_certId].status = certStatus.VOID;\n        emit certVoided(_certId, msg.sender);\n        \n    }\n    function createCert(\n        string calldata _certId, \n        uint32 _expiresOn,\n        string calldata _title,\n        string calldata _institution,\n        string calldata _beneficiary,     \n        string calldata _details,     \n        string calldata _pofHash\n    ) override public returns (bool created){\n    \n        require(diplomas[msg.sender][_certId].status == certStatus.NONE, \"Diploma Id in use\");\n        \n        diplomas[msg.sender][_certId] = certificate(\n                certStatus.ACTIVE, \n                block.timestamp, \n                0, \n                (_expiresOn > 0 ? block.timestamp + _expiresOn : 0),\n                _title, \n                _institution,\n                _beneficiary, \n                _details,\n                _pofHash\n            );\n        emit certVoided(_certId, msg.sender);\n        return true;\n    }\n    \n    function getCert(string calldata _certId, address _certAuth) public override view returns (\n        uint createdOn, \n        uint voidedOn, \n        uint expiresOn, \n        string memory title, \n        string memory institution, \n        string memory beneficiary, \n        string memory details, \n        string memory PoEhash){\n            \n        require(diplomas[_certAuth][_certId].status != certStatus.NONE, \"Diploma does not exists\");\n        \n        // Determine if diploma has a set expiration, if so, verifies if the diploma is not expired\n        if (diplomas[_certAuth][_certId].expiresOn > 0)\n        {\n            require(diplomas[_certAuth][_certId].expiresOn > block.timestamp, \"Diploma has expired\");\n        }\n        \n        certificate memory currentDiploma = diplomas[_certAuth][_certId];\n        \n        \n        return (\n            currentDiploma.createdOn, \n            currentDiploma.voidedOn, \n            currentDiploma.expiresOn, \n            currentDiploma.title, \n            currentDiploma.institution, \n            currentDiploma.beneficiary, \n            currentDiploma.details, \n            currentDiploma.PoEhash\n        );\n        \n    }\n    \n    \n    function certValid(string memory _certId, address _certAuth) view override public returns(bool isValid){\n        certificate memory cert = diplomas[_certAuth][_certId];\n       if (cert.status != certStatus.ACTIVE) return false;\n       if (cert.expiresOn != 0 && cert.expiresOn < block.timestamp) return false;\n       return true;\n    }\n\n \n    function proofOfExistence(string calldata _certId, address _certAuth, string calldata _pofHash) view public returns(bool isValid){\n         require(diplomas[_certAuth][_certId].status == certStatus.ACTIVE);\n         require(bytes(diplomas[_certAuth][_certId].PoEhash).length > 0);\n         return keccak256(abi.encodePacked(diplomas[_certAuth][_certId].PoEhash)) == keccak256(abi.encodePacked(_pofHash));\n        \n    }\n    \n    function destroyContract() public onlyOwner{\n        selfdestruct(msg.sender);\n    }\n }\n \n ",
  "sourcePath": "/Users/jay/Desktop/dev/blockchain/truffle_ui/contracts/Diplomas.sol",
  "compiler": {
    "name": "solc",
    "version": "0.7.6+commit.7338295f.Emscripten.clang"
  },
  "schemaVersion": "3.3.4",
  "updatedAt": "2021-04-07T21:43:20.129Z",
  "networkType": "ethereum",
  "devdoc": {
    "kind": "dev",
    "methods": {
      "certValid(string,address)": {
        "details": "Verifies if certificate is not voided, in case if being  active, it verifies if an expiration date was set, if so,  it verifies that the expiration date < current date",
        "params": {
          "_certAuth": "address if cert authority",
          "_certId": "id of the certificate"
        },
        "returns": {
          "isValid": "bool "
        }
      },
      "createCert(string,uint32,string,string,string,string,string)": {
        "details": "Throws if certId of `msg.sender` already exists",
        "params": {
          "_beneficiary": "string",
          "_certId": "id of the certificate string",
          "_expiresOn": "lenght of certificate (in seconds) uint",
          "_institution": "string",
          "_pofHash": "string"
        }
      },
      "getCert(string,address)": {
        "details": "Verifies that the certificate status != NONE, also verifies if the same has an expiration date, in that case it verifies that the expiration date < current date",
        "params": {
          "_certAuth": "address if cert authority",
          "_certId": "id of the certificate"
        },
        "returns": {
          "PoEhash": "string",
          "beneficiary": "string",
          "createdOn": "uint",
          "details": "string",
          "expiresOn": "uint",
          "institution": "string",
          "title": "uint",
          "voidedOn": "uint"
        }
      },
      "voidCert(string)": {
        "details": "Throws if `msg.sender` is the not current owner",
        "params": {
          "_certId": "id of the certificate"
        }
      }
    },
    "version": 1
  },
  "userdoc": {
    "kind": "user",
    "methods": {
      "certValid(string,address)": {
        "notice": "Validates a certificate"
      },
      "createCert(string,uint32,string,string,string,string,string)": {
        "notice": "Creates a new certificate (token)"
      },
      "getCert(string,address)": {
        "notice": "Returns a certificate"
      },
      "voidCert(string)": {
        "notice": "Void an existing token "
      }
    },
    "version": 1
  }
}